:100000000C94661B0C94971B0C94971B0C94971BD9
:100010000C94971B0C94971B0C94971B0C94971B98
:100020000C94971B0C94971B0C94971B0C94971B88
:100030000C94971B0C94971B0C94971B0C94971B78
:100040000C94971B0C94971B0C94971B0C94971B68
:100050000C94971B0C94971B0C94971B0C94176192
:100060000C94971B0C9493640C94C9640C94971B88
:100070000C94971B0C94971B0C94971B0C94971B38
:100080000C94971B0C94971B0C94971B0C94971B28
:100090000C94971B0C94971B0C94971B0C94971B18
:1000A0000C94971B0C94971B0C94971B0C94971B08
:1000B0000C94971B0C94971B0C94971B0C94971BF8
:1000C0000C94971B0C94971B0C94971B0C94971BE8
:1000D0000C94971B0C94971B0C94971B0C94971BD8
:1000E0000C94971BAE3ACC3AF33A093B093B093BD7
:1000F000203BA83BAE3AA83B433BA83B513B513B7E
:100100006E3B6E3BF33AD43BD43BF33A513BA83BB6
:10011000093B7C3BA83BA83BA83BA83BA83B963BA4
:10012000A83BA83B413CA23D8B3E5A3F6540654001
:10013000F7414B43F04858444946B5467E4A574B31
:10014000334D334D8B3E265626568B3E2A4C344E2D
:100150007941FD4EC84FCE51F5508752CE532855A8
:100160003C55F04453625662456249624F628D626B
:100170005A625E62646268626C62726276627A621D
:100180008D6280628462886205A84CCDB2D44EB97B
:100190003836A9020C50B9918688083CA6AAAA2A2A
:1001A000BE000000803F1820205F0000000000001B
:1001B000000000000000000000000000000000003F
:1001C000000000000000000000000000000000002F
:1001D000000000000000000000000000000000001F
:1001E000000000000000000000000000000000000F
:1001F00000000000000000000000000000000000FF
:1002000000000000000000000000001800003C009A
:10021000003C00003C00003C00003C00003C0000B2
:100220001C00001C00001800001800001800001836
:100230000000180000180000180000180000180046
:10024000000000000000000000001800003C00005A
:100250003C00003C00000000000000000000000026
:100260000000000000000000000000C08001E1E08C
:1002700001E1E001F1E000E0E00060E000E0C0004A
:10028000C1C00181800303000000000000000000E5
:10029000000000000000000000000000000000005E
:1002A000000000000000000000000000000000004E
:1002B000000000000000000000000000000000003E
:1002C0000000000000000000000000000000E180CD
:1002D00000E18000C18000C38000C38000C3000F24
:1002E000FFF01FFFF001C30001C30001830001877D
:1002F000000187000186001FFFE01FFFE00186006C
:10030000038600030600030600030E00030E00032D
:100310000C000000000000000000000000000000D1
:1003200000000000000000000000000000001800B5
:1003300000180000FE0001FF80039BE00718C007C3
:10034000188007180007180003980003F80000FC45
:1003500000007F00001FC00019C00018E0001860F6
:100360000018600418600618E00F19C003FF800130
:10037000FF00001800001800001800000000000036
:100380000000000000000000000000000001C000AC
:1003900007E0700770600E30E00C30C00C31800E4A
:1003A000338006730007E70003C600000E00000C50
:1003B00000001C000018000030000071E00063F035
:1003C00000E63800C61801C61801861803863803EF
:1003D00003F00601E0000000000000000000000043
:1003E0000000000000000000000000200001FC00F0
:1003F00003FE00038E000306000707000306000348
:100400008600038E0001DC0000F80000F00003F01D
:100410000007B840071C600E1C700E0EE00C07C0F1
:100420001C03C00C03800E07C00F1EE007FCF00386
:10043000F860000000000000000000000000000064
:1004400000000000000000000000001800003C0058
:10045000003C00003C00001C00000C0000180000E4
:1004600018000030000060000000000000000000E4
:10047000000000000000000000000000000000007C
:10048000000000000000000000000000000000006C
:10049000000000000000000000000000000000005C
:1004A0000000000000000000000000010000070044
:1004B000000F80001C000038000070000070000079
:1004C000E00000C00001C00001C000018000018008
:1004D000000380000380000380000380000380008D
:1004E00001800001800001C00001C00000E00000A8
:1004F000E000007000007800003800001C00000FD1
:100500000000078000030000000000800000E00001
:1005100000F000007800001C00000E000007000042
:1005200007000003800003800001C00001C000003C
:10053000C00000C00000C00000E00000E00000C0FB
:100540000000C00001C00001C00001800003800065
:100550000380000700000E00001E00003C00007831
:100560000000F00000C0000080000000000000005B
:10057000000000000000000000000000001C00005F
:100580001C00001C00041C1007187007C9F001FFB4
:10059000C0003C00003C0000760000630000E380E7
:1005A00001C1C00381C00080800000000000000085
:1005B000000000000000000000000000000000003B
:1005C000000000000000000000000000000000002B
:1005D000000000000000000000001C00001C0000E3
:1005E0001C00001C00001C00001C00001C0007FF79
:1005F000F007FFF0001C00001C00001C00001C00A5
:10060000001C00001C00001C000000000000000096
:1006100000000000000000000000000000000000DA
:1006200000000000000000000000000000000000CA
:1006300000000000000000000000000000000000BA
:1006400000000000000000000000000000000000AA
:10065000000000000000000000000000000000009A
:10066000000000000600000F00000F00000F000057
:100670000700000300000600000600000C00001840
:10068000000000000000000000000000000000006A
:10069000000000000000000000000000000000005A
:1006A000000000000000000000000000000003FF48
:1006B000E003FFE000000000000000000000000078
:1006C000000000000000000000000000000000002A
:1006D000000000000000000000000000000000001A
:1006E000000000000000000000000000000000000A
:1006F00000000000000000000000000000000000FA
:1007000000000000000000000000000000000000E9
:1007100000000000000000000000000000000000D9
:10072000000000000000000C00001E00001E000081
:100730001E0000000000000000000000000000009B
:10074000000000000000000000000000400000E089
:100750000000E00000C00001C00001800003800034
:100760000300000700000700000E00000E00001C40
:1007700000001C000038000038000030000070004D
:1007800000600000E00000C00001C0000180000324
:10079000800003800007000001000000000000004E
:1007A0000000000000000000000000100000FC003D
:1007B00001FE0003C7000383800701800601C00615
:1007C00003C00E07C00E0EC00E1CE00C18E00C3863
:1007D000E00E70E00EE0E00EC0C00FC0C00780C0A9
:1007E0000701C007018003838003C70000FE0000EB
:1007F0007C0000000000000000000000000000007D
:1008000000000000000000000000000000000E00DA
:10081000003E0001FE0000C60000060000060000C9
:1008200006000006000006000006000006000006A4
:10083000000006000006000006000006000006009A
:10084000000600000600000600000600000600008A
:100850000600000000000000000000000000000092
:100860000000000000000000000000100000FE007A
:1008700001FF000387800701C00201C00001C00022
:1008800000C00001C00001C0000380000380000719
:1008900000000E00001C0000380000700000E000A6
:1008A00001C00003800003800007002007FFC0078D
:1008B000FFC0000000000000000000000000000079
:1008C0000000000000000000000000000000FC002C
:1008D00003FF000707000203800001800001800081
:1008E0000180000380000700001E00007C00007FE4
:1008F000000007800003800001C00001C00001C0AB
:100900000001C00201C002038007878003FF0001CD
:10091000FC000000000000000000000000000000DB
:1009200000000000000000000000000000000700C0
:10093000000F00000F00001F00003F000037000004
:10094000670000670000C70001C7000187000307B8
:10095000000707000607000FFFE00FFFE00FFFE0B2
:100960000007000007000007000007000007000064
:100970000700000000000000000000000000000070
:100980000000000000000000000000000003FFC0A5
:1009900003FFC00300000300000300000300000386
:1009A000000007000007FE0007FF0007878007011F
:1009B000C00001C00000C00000E00000E00000E056
:1009C0000000C00201C00E01C007878003FF0001C4
:1009D000FE00000000000000000000000000000019
:1009E00000000000000000000000000800007F0080
:1009F00000FFC001C18003808003000007000007E2
:100A00000000060000063E0006FF0007C7800781C1
:100A1000800701C00600C00600C00600C00600C076
:100A20000700C00301C00381C001C38000FF0000B4
:100A30007E00000000000000000000000000000038
:100A40000000000000000000000000000007FFC0E0
:100A500007FFC00001C00003800003800003000006
:100A60000700000700000E00000E00000C00001C34
:100A700000001C0000380000380000380000700042
:100A800000700000700000E00000E00000E00001E5
:100A9000C000000000000000000000000000000096
:100AA0000000000000000000000000180000FE0030
:100AB00001FF000383800301800701C00701C00319
:100AC00001C003838001C70000FE00007C0001FF1D
:100AD0000003C7800703800701C00600C00E00E0C6
:100AE0000E00C00600C00701C007838003FF80001E
:100AF000FE000000000000000000000000000000F8
:100B00000000000000000000000000100000FE00D7
:100B100001FF000387800703800701C00601C006AC
:100B200000C00600C00600C00700C00701C0038364
:100B3000C003FEC000FCC00020C00001C00001C016
:100B40000001C0000380020380030F0007FE0001C4
:100B5000F80000000000000000000000000000009D
:100B60000000000000000000000000000000000085
:100B7000000000001800003C00003C00003C0000A9
:100B80000000000000000000000000000000000065
:100B900000000000000000001800003C00003C00C5
:100BA000003C000000000000000000000000000009
:100BB0000000000000000000000000000000000035
:100BC0000000000000000000000000000000000025
:100BD000000000000C00001E00001E00001E0000AF
:100BE0000000000000000000000000000000000005
:100BF00000000000000000000C00001E00001E00AD
:100C0000001E00000E00000600000C00000C00009A
:100C1000180000300000000000000000000000008C
:100C200000000000000000000000000000000000C4
:100C30000000000000000000200000E00003E000D1
:100C40000F80003E0000F80003E0000F80001E004F
:100C5000001E00000F800003E00000F000007C0098
:100C6000001F000007C00001E00000E000002000BD
:100C70000000000000000000000000000000000074
:100C80000000000000000000000000000000000064
:100C9000000000000000000000000000000000074D
:100CA000FFF007FFF000000000000000000000005F
:100CB0000000000007FFF007FFF007FFF000000052
:100CC0000000000000000000000000000000000024
:100CD0000000000000000000000000000000000014
:100CE0000000000000000000000000000000000004
:100CF0000000000000000800000E00000F8000034C
:100D0000E00000F800003E00000F000003C00000FB
:100D1000E00000E00003C0000F80003E000078000B
:100D200001F00007C0001F00001C000018000000B8
:100D300000000000000000000000000000000000B3
:100D400000000000000000000000000000003E0065
:100D500000FF8001FFC00781C00300E00100E00048
:100D600000E00000E00000E00001E00003C0000738
:100D700080000700000E00000C00000C00001C00AA
:100D8000001C00000000000000000000000C00003B
:100D90001E00001E00001E000000000000000000F9
:100DA00000000000000000000000000000001C0027
:100DB00000FF0001E7800381C00700E00600600E2D
:100DC00000600C03E00C1FE01C3C601C70601860AD
:100DD000601860601C60601C70E01C79E00C3FE0F3
:100DE0000C0E000E000007000003800003C0C000CE
:100DF000FFC0007F80000000000000000000000035
:100E00000000000000000000000000200000300092
:100E1000003000003000007800007800007800000A
:100E2000FC0000CC0000CE00018600018600018796
:100E30000003030003038003FF8007FF800601C057
:100E40000E01C00E00C00C00E01C00E01C00701879
:100E50000070000000000000000000000000000022
:100E6000000000000000000000000000000FFE0075
:100E70000FFF000C07800C01C00C01C00C00C00C5F
:100E800001C00C01C00C03800FFF000FFE000FFF1C
:100E9000800C03C00C01C00C00E00C00E00C00E072
:100EA0000C00E00C00E00C01C00C07C00FFF800F2D
:100EB000FC00000000000000000000000000000036
:100EC00000000000000000000000000800007F009B
:100ED00001FFC003C1E00780E00700700E00000EB4
:100EE00000000E00000C00000C00000C00000C00C4
:100EF000000C00000C00000C00000E00000E0000B2
:100F00000700000700400380E003C1C000FF80002D
:100F10007F00000000000000000000000000000052
:100F2000000000000000000000000000000FFC00B6
:100F30000FFF000C0F800C03800C01C00C01C00CD3
:100F400000E00C00E00C00E00C00E00C00E00C0005
:100F5000600C00600C00E00C00E00C00E00C00C035
:100F60000C01C00C01C00C03800C0F000FFE000F21
:100F7000F800000000000000000000000000000079
:100F8000000000000000000000000000000FFFE073
:100F90000FFFE00E00000E00000E00000E00000E1D
:100FA00000000E00000E00000E00000FFF000FFFFB
:100FB000000E00000E00000E00000E00000E0000EB
:100FC0000E00000E00000E00000E00000FFFC00F0C
:100FD000FFC0000000000000000000000000000052
:100FE0000000000000000000000000000007FFC03B
:100FF00007FFC00700000700000700000700000708
:10100000000007000007000007FF0007FF0007FFC0
:1010100000070000070000070000070000070000AD
:101020000700000700000700000700000700000796
:1010300000000000000000000000000000000000B0
:1010400000000000000000000000000400007F809D
:1010500000FFC001E0E0038070038020070000076C
:1010600000000600000600000600000E00000E0052
:10107000000E03F00E03F0060030060030070030CB
:1010800007003003803003C03001E0F000FFE000D3
:101090003F80000000000000000000000000000091
:1010A000000000000000000000000000000E00E052
:1010B0000E00E00E00E00E00E00E00E00E00E00E7C
:1010C00000E00E00E00E00E00E00E00FFFE00FFF7A
:1010D000E00E00E00E00E00E00E00E00E00E00E08A
:1010E0000E00E00E00E00E00E00E00E00E00E00E4C
:1010F00000E0000000000000000000000000000010
:101100000000000000000000000000000007FF8059
:1011100007FF800030000030000030000030000089
:10112000300000300000300000300000300000309F
:1011300000003000003000003000003000003000BF
:1011400000300000300000300000300007FF800752
:10115000FF80000000000000000000000000000010
:101160000000000000000000000000000000FFE0A0
:1011700000FFE00007000007000007000007000074
:101180000700000700000700000700000700000735
:10119000000007000007000007000007000006002D
:1011A000000600000E00040E000F1C0007F80003EC
:1011B000F800000000000000000000000000000037
:1011C000000000000000000000000200A00C01C0B0
:1011D0000C03800C07800C07000C0E000C1C000C8C
:1011E00038000C70000CE0000DC0000FE0000FE0B4
:1011F000000E70000C38000C3C000C1C000C0E00A3
:101200000C0F000C07000C03800C01C00C01E00C5B
:1012100000F00000000000000000000000000000DE
:1012200000000000000000000000000000070000B7
:101230000700000700000700000700000700000784
:10124000000007000007000007000007000007007B
:10125000000700000700000700000700000700006B
:1012600007000007000007000007000007FFE00775
:10127000FFE000000000000000000000000000008F
:10128000000000000000000000000000000C0060F2
:101290000E00E00E00E00F01E00F01E00F83E00F11
:1012A00083600DC7600CC6600CEE600C6C600C783F
:1012B000600C38600C30600C10600C00600C00603A
:1012C0000C00600C00600C00600C00600C00600CF6
:1012D00000600000000000000000000000000000AE
:1012E000000000000000000000000000000E00E010
:1012F0000E00E00F00E00F80E00F80E00DC0E00D79
:10130000C0E00CE0E00C60E00C70E00C38E00C3861
:10131000E00C1CE00C1CE00C0EE00C0EE00C07E0F6
:101320000C03E00C03E00C01E00C01E00C00E00C0D
:1013300000E00000000000000000000000000000CD
:101340000000000000000000000000000000FE009F
:1013500001FF800383800701C00E00C00E00E00C77
:1013600000E01C00601C00601C00701C00701C0071
:10137000701C00701C00701C00600C00600E00E00F
:101380000E00E00701C00781C003C78001FF000015
:10139000FE0000000000000000000000000000004F
:1013A000000000000000000000000000000FFF002F
:1013B0000FFF800E03C00E01C00E00E00E00E00E15
:1013C00000E00E00E00E00E00E01C00FFF800FFFF6
:1013D000000FFC000E00000E00000E00000E0000CA
:1013E0000E00000E00000E00000E00000E00000EA9
:1013F00000000000000000000000000000000000ED
:1014000000000000000000000000000800007F0055
:1014100000FFC001C1C00380E00700600700700644
:1014200000700E00300E00300E00380E00380E0036
:10143000380E00380E00380E00300600300700303D
:101440000700700300600380E001E3C000FF80003C
:101450007E00001C00000C00000E00000FF00007D2
:10146000F00000000000000000000000000FFF007E
:101470000FFF800E03C00E01C00E00E00E00E00E54
:1014800000E00E00E00E01C00E03C00FFF800FFF52
:10149000000FFC000E0C000E0E000E07000E0700E1
:1014A0000E03800E03800E01C00E01C00E00E00E80
:1014B00000E000000000000000000000000000004C
:1014C00000000000000000000000000000007F801D
:1014D00000FFC001C0E00380600380400380000380
:1014E000800003800001E00000F800007E00001F83
:1014F000800007C00001E00000F0000070000070F4
:101500000000700200700700E007C1E001FFC000AA
:10151000FF000000000000000000000000000000CC
:10152000000000000000000000000000000FFFF0BD
:101530000FFFF0001800001800001800001800004D
:10154000180000180000180000180000180000180B
:101550000000180000180000180000180000180013
:101560000018000018000018000018000018000003
:101570001800000000000000000000000000000053
:10158000000000000000000000000000000E0060ED
:101590000C00600C00600C00600C00600C00600C23
:1015A00000600C00600C00600C00600C00600C001F
:1015B000600C00600C00600C00600C00600E00E02D
:1015C0000E00E00E00E00701C00783C003FF8000AB
:1015D000FE0000000000000000000000000000000D
:1015E000000000000000000000000000001C00706F
:1015F0000C00600E00E00E00E00600C00701C0070E
:1016000001C003018003818003838001830001C343
:101610000001C70000C60000E60000EE00006C00FC
:10162000007C00007C00003800003800003800001A
:10163000100000000000000000000000000000009A
:101640000000000000000000000000000018003052
:101650001810301C10301C18301C18700C38600C1E
:101660003C600C3C600C6C600E6C600E6E6006663C
:10167000C006C6C006C6C006C7C00783C00783C071
:1016800007838003838003018003018003018003BB
:1016900001800000000000000000000000000000C9
:1016A000000000000000000000000000200E00C04C
:1016B0000701C007018003838003830001C7000185
:1016C000CE0000EE00007C00007C000038000038F6
:1016D00000007C00007C0000EE0000CE0001C7008E
:1016E0000383800383800701C00701C00E00E00E62
:1016F00000F00000000000000000000000000000FA
:10170000000000000000000000000000080F003092
:101710000700700380600380E001C0C001C1C00009
:10172000E1C000E380007380007700003F00003ECE
:1017300000001E00001C00001C00001C00001C001B
:10174000001C00001C00001C00001C00001C00000D
:101750001C0000000000000000000000000000006D
:10176000000000000000000000000000000FFFE08B
:101770000FFFE00001C00001C00003800003000073
:101780000700000E00000E00001C000038000038AA
:101790000000700000700000E00001C00001C00007
:1017A0000380000380000700000E00100FFFE00F11
:1017B000FFE000000000000000000000000000004A
:1017C0000000000000000000000000000003FF8097
:1017D00003FF800300000300000300000300000378
:1017E00000000300000300000300000300000300EA
:1017F00000030000030000030000030000030000DA
:1018000003000003000003000003000003000003C6
:10181000000003000003000003000003FF8003FF3B
:101820008000000000000000000000800003800035
:1018300001C00001C00000E00000E00000700000F6
:101840007000003800003800001800001C00000C78
:1018500000000E00000600000700000700000380E3
:101860000003800001C00001C00000E00000E000B3
:101870000060000070000030000020000000000048
:101880000000000000000000000000000001FFC098
:1018900001FFC00001C00001C00001C00001C00084
:1018A00001C00001C00001C00001C00001C0000172
:1018B000C00001C00001C00001C00001C00001C0A3
:1018C0000001C00001C00001C00001C00001C00053
:1018D00001C00001C00001C00001C001FFC001FF44
:1018E000C000000000000000000000000000080030
:1018F000001C00001E00003E000077000063000096
:10190000E38000C1800181C00380800000000000EE
:1019100000000000000000000000000000000000C7
:1019200000000000000000000000000000000000B7
:1019300000000000000000000000000000000000A7
:101940000000000000000000000000000000000097
:101950000000000000000000000000000000000087
:101960000000000000000000000000000000000077
:101970000000000000000000000000000000000067
:101980000000000000000000000000000000000057
:1019900000000FFFF00FFFF000000000000000004B
:1019A00000000000000000000000000000003C00FB
:1019B00000FE0001C70001830001838001838001D4
:1019C000830001C70000FE00007C00000000000052
:1019D0000000000000000000000000000000000007
:1019E00000000000000000000000000000000000F7
:1019F00000000000000000000000000000000000E7
:101A000000000000000000000000000000000000D6
:101A100000000000000000000000000000000000C6
:101A20000800007F0003FFC00181E00100E000002A
:101A300060000060000060003FE001FFE003C06064
:101A40000700600700600700E00701E00783E0038C
:101A5000FF6001FC600000000000000000000000CA
:101A6000000000000000000000000000000700006F
:101A7000070000070000070000070000070000073C
:101A80000400073F00077FC007C1C00780E00700D0
:101A9000F007007007007007007007007007007003
:101AA0000700700700700780E00780E007C3C007E9
:101AB0007F80063F000000000000000000000000E2
:101AC0000000000000000000000000000000000016
:101AD0000000000000000000000000000000000006
:101AE000000000FF0003FF800783C00700800E0096
:101AF000800C00001C00001C00001C00001C0000EA
:101B00001C00000E00000E000007018007C3C00388
:101B1000FF8000FE00000000000000000000000048
:101B2000000000000000000000000000000000C0F5
:101B30000000C00000C00000C00000C00000C000E5
:101B400020C001FCC003FEC00783C00701C00E0116
:101B5000C00E01C00E00C00C00C00C00C00E00C0C2
:101B60000E01C00E01C00E01C00703C00787C003ED
:101B7000FEC000FCE00000000000000000000000CB
:101B80000000000000000000000000000000000055
:101B90000000000000000000000000000000000045
:101BA000100000FE0001FF000383800701C0060053
:101BB000C00E00C00E00E00FFFE00FFFE00E0000BF
:101BC0000E00000E000006000007008003C1C001E7
:101BD000FF8000FF00000000000000000000000087
:101BE00000000000000000000000000000000FC026
:101BF000003FE000787000702000E02000E000006E
:101C0000E00000E00000E0000FFF000FFF0000E038
:101C10000000E00000E00000E00000E00000E00064
:101C200000E00000E00000E00000E00000E0000054
:101C3000E00000E0000000000000000000000000E4
:101C40000000000000000000000000000000000094
:101C50000000000000000000000000000000000084
:101C6000000000302001FCF003DFF007070006034E
:101C7000000E03800E0380060300070700078F0095
:101C800003FE0003F800070000060000070000073D
:101C9000FF0003FFC00601E00C00E00C00601C0028
:101CA000E00E01C00FFF8003FF00000000070000EE
:101CB0000600000600000600000600000600000600
:101CC0000000060400063F00067F8006C3C00781AF
:101CD000C00701C00700C00600C00600C00600C063
:101CE0000600C00600C00600C00600C00600C00610
:101CF00000C00600C000000000000000000000005E
:101D0000000000000000000000000010000038008B
:101D10000038000038000000000000000000000053
:101D2000000003F80003F800003800003800003815
:101D3000000038000038000038000038000038008B
:101D40000038000038000038000038000038000378
:101D5000FF8003FF80000000000000000000000082
:101D600000000000000000000000000000000080F3
:101D70000001C00001C00001C00000000000000020
:101D80000000000000007FC0007FC00001C0000113
:101D9000C00001C00001C00001C00001C00001C0BE
:101DA0000001C00001C00001C00001C00001C0006E
:101DB00001C00001C00001C00001C0010380038711
:101DC0008003FF0000FE000010000000000F000074
:101DD0000E00000E00000E00000E00000E00000EAF
:101DE00000000E00000E01E00E03800E07000E0E34
:101DF000000E1C000E38000E70000FF0000FB8002F
:101E00000F3C000E1E000E0E000E07000E03800E8B
:101E100003C00E01E0000000000000000000000010
:101E20000000000000000000000000000007F800B3
:101E300007F80000380000380000380000380000C3
:101E40003800003800003800003800003800003842
:101E5000000038000038000038000038000038006A
:101E60000038000038000038000038000038000F4B
:101E7000FFC00FFFC00000000000000000000000D5
:101E80000000000000000000000000000000000052
:101E90000000000000000000000000000000000042
:101EA00020400EF9F00FFB700F1E300E1C380E1C78
:101EB000380E1C380E1C380E1C380E1C380E1C3800
:101EC0000E1C380E1C380E1C380E1C380E1C380E1A
:101ED0001C380E1C3800000000000000000000004C
:101EE00000000000000000000000000000000000F2
:101EF00000000000000000000000000000000000E2
:101F00000400031F80033FC00361E003C0E00380BF
:101F1000E00380E0030060030060030060030060F2
:101F200003006003006003006003006003006003BF
:101F300000600300600000000000000000000000DE
:101F40000000000000000000000000000000000091
:101F50000000000000000000000000000000000081
:101F6000100000FE0001FF000383800701C00E0186
:101F7000E00E00E00E00E00C00E00C00600E00E05F
:101F80000E00E00E00E00F00E00701C003838001B7
:101F9000FF0000FE00000000000000000000000044
:101FA0000000000000000000000000000000000031
:101FB0000000000000000000000000000000000021
:101FC00008000E7F000EFF800F83C00F01C00E00BF
:101FD000E00E00E00E00E00E00E00E00600E00E0FB
:101FE0000E00E00E00E00E00E00F01C00F83800E37
:101FF000FF800E7E000E00000E00000E00000E009E
:10200000000E00000E0000000000000000000000B4
:1020100000000000000000000000000000000000C0
:102020000800007E7001FF7003C1F00380F007001C
:10203000F00700700700700600700600700700705F
:102040000700700700F00700F00381F003C3F00100
:10205000FF70007E700000700000700000700000D3
:102060007000007000007000000000000000000020
:102070000000000000000000000000000000000060
:102080000400073F80067FC006E0C007C0800780CD
:10209000000700000700000700000600000600001F
:1020A000060000060000060000060000060000060C
:1020B000000006000000000000000000000000001A
:1020C0000000000000000000000000000000000010
:1020D0000000000000000000000000000000000000
:1020E000100000FF0001FF800381C007008007008F
:1020F0008003800003E00001FC00007F00000FC0AF
:102100000003C00001C00400C00601C00F83C0036B
:10211000FF8001FE00000000000000000000000041
:1021200000000000000000000000000000000000AF
:1021300000000000700000700000700000600000EF
:10214000600007FF8007FF80006000006000006003
:102150000000E00000E00000E00000E00000E0001F
:1021600000E00000E00000E0000070400078C000E7
:102170007FE0003F80000000000000000000000041
:10218000000000000000000000000000000000004F
:10219000000000000000000000000000000000003F
:1021A00000000E00C00E00C00E00C00E00C00E00E9
:1021B000C00E00C00E00C00E00C00E00C00E00C059
:1021C0000E00C00E01C00701C00703C00787C0038F
:1021D000FCC001F8E000000000000000000000006A
:1021E00000000000000000000000000000000000EF
:1021F00000000000000000000000000000000008D7
:102200000000070030070070030060038060038057
:10221000E001C0C001C0C001C1C000E18000E38096
:10222000006300007700007600003E00003E0000E2
:102230001C00003C00000000000000000000000046
:10224000000000000000000000000000000000008E
:10225000000000000000000000000000000000007E
:1022600000001800301810301838701C38600C3816
:10227000600C3C600C6C600C6C600E6C6006664020
:1022800006C6C006C6C007C7C00783C00383C00315
:102290008380038180000000000000000000000037
:1022A000000000000000000000000000000000002E
:1022B000000000000000000000000000000000001E
:1022C00000000700E00381C001C1C001C38000E736
:1022D00000007700003E00003C00001C00003E00B3
:1022E000007E0000770000E38001C1C00181C003CF
:1022F00080E0070070000000000000000000000007
:1023000000000000000000000000000000000000CD
:1023100000000000000000000000000000000000BD
:1023200000000E00E00E00E00700C00700C003013F
:10233000C003818003818001C38001C30000C70006
:1023400000E70000E600007E00007C00003C00008A
:102350003C000038000038000030000070000860C9
:10236000001FE0000FC0000200000000000000009D
:10237000000000000000000000000000000000005D
:10238000000007FFC007FFC00003800007800007B0
:1023900000000E00001C00003800007800007000F3
:1023A00000E00001C0000380000780000F00200F44
:1023B000FFE00FFFE0000000000000000000000050
:1023C000000000000000000000000000000007C046
:1023D000001FC0003C0000300000700000700000D2
:1023E000700000700000700000700000700000605D
:1023F0000000E00007C00007800003C00000E0000C
:1024000000600000700000700000700000700000AC
:102410007000007000007000007000007800003C48
:1024200000001FC00007C0000000000000001C00EA
:10243000001C00001C00001C00001C00001C000010
:102440001C00001C00001C00001C00001C00001CE4
:1024500000001C00001C00001C00001C00001C00F0
:10246000001C00001C00001C00001C00001C0000E0
:102470001C00001C00001C00001C00001C00001CB4
:1024800000001C00001C0000000000000001F8001B
:1024900001FE00000F0000070000030000038000A1
:1024A000038000038000038000038000038000039A
:1024B000800001C00000F80000780000E00001800A
:1024C000000380000380000380000380000380007D
:1024D0000380000380000380000380000700000FDA
:1024E0000001FE0001F800000000000000000000F4
:1024F00000000000000000000000000000000000DC
:1025000000000000000000000000000000000000CB
:102510000003E02007F8700E3FE00C0FC00007003A
:1025200000000000000000000000000000000000AB
:10253000000000000000000000000000000000009B
:10254000000000000000000000001010205F0000EC
:10255000000000000000000000000000000000007B
:10256000000000000000000000000000000000006B
:10257000000007000F800F800F800F800F80070082
:10258000070000000000070007000700000000002F
:102590000E380E380E380E380630000000000000ED
:1025A000000000000000000000000000000000002B
:1025B0000C300C300C307FFE7FFE0C300C300C30B9
:1025C0000C307FFE7FFE0C300C300C300000000021
:1025D000024002400FF81FF81A401A401FF00FF88F
:1025E000025802581FF81FF002400240000000008D
:1025F000000000000E100E300E7000E001C00380DD
:1026000007000E700C700870000000000000000051
:1026100000000F001980198019800F000F080F9813
:1026200019F818F018E019F00F98000000000000E9
:1026300000000700070007000E0000000000000077
:10264000000000000000000000000000000000008A
:10265000000000F001C0038007000E000E000E0015
:102660000E000700038001C000F000000000000021
:1026700000000F00038001C000E0007000700070D7
:10268000007000E001C003800F00000000000000A7
:10269000000001801188099007E007E03FFC3FFC43
:1026A00007E007E0099011880180000000000000A9
:1026B0000000000000000180018001800FF00FF099
:1026C0000180018001800000000000000000000087
:1026D00000000000000000000000000000000000FA
:1026E000000000000700070007000E0000000000C7
:1026F0000000000000000000000000001FF81FF8AC
:1027000000000000000000000000000000000000C9
:1027100000000000000000000000000000000000B9
:102720000000000007000700070000000000000094
:10273000000000020006000E001C0038007000E0DF
:1027400001C0038007000E001C0000000000000014
:1027500000000FF01C381C781CF81CF81DB81DB8C0
:102760001F381F381E381C380FF000000000000012
:1027700000000180018003801F801F800380038090
:1027800003800380038003801FF00000000000002E
:1027900000000FE01C701C380038007000E001C021
:1027A000038007000E381C381FF8000000000000EE
:1027B00000000FE01C701C380038007003C003C01C
:1027C000007000381C381C700FE000000000000092
:1027D000000000E001E003E006E00CE018E01FF874
:1027E0001FF800E000E000E003F800000000000037
:1027F00000001FF81C001C001C001C001FE01FF044
:10280000007800381C381C700FE000000000000049
:10281000000003E007000E001C001C001FF01FF862
:102820001C381C381C381C380FF000000000000059
:1028300000001FFC1C1C1C1C1C1C001C0038007011
:1028400000E001C00380038003800000000000005E
:1028500000000FF01C381C381C381F3807E007E058
:102860001CF81C381C381C380FF000000000000059
:1028700000000FF01C381C381C381C381FF80FF8EB
:1028800000380038007000E007C0000000000000C1
:1028900000000000000003800380038000000000AF
:1028A000038003800380000000000000000000009F
:1028B000000000000000038003800380000000008F
:1028C0000380038003800700000000000000000078
:1028D000007000E001C0038007000E001C001C0017
:1028E0000E000700038001C000E00070000000003F
:1028F00000000000000000003FFC3FFC0000000062
:102900003FFC3FFC00000000000000000000000051
:102910001C000E000700038001C000E00070007082
:1029200000E001C0038007000E001C000000000052
:1029300003C00FF01E7818380038007000E001C0A6
:1029400001C00000000001C001C001C00000000083
:102950000FF81C1C1C1C1C1C1C1C1CFC1CFC1CFC48
:102960001CFC1C001C001C001FF007F800000000ED
:10297000000003C007E00E701C381C381C381C38DF
:102980001FF81C381C381C381C38000000000000E0
:1029900000001FF00E380E380E380E380FF00FF012
:1029A0000E380E380E380E381FF000000000000000
:1029B000000007F00E381C381C001C001C001C0016
:1029C0001C001C001C380E3807F00000000000003E
:1029D00000001FE00E700E380E380E380E380E381C
:1029E0000E380E380E380E701FE000000000000098
:1029F00000001FF80E180E080E000E300FF00FF03A
:102A00000E300E000E080E181FF800000000000027
:102A100000001FF80E180E080E000E300FF00FF019
:102A20000E300E000E000E001F000000000000001F
:102A3000000007F00E381C381C381C001C001C005D
:102A40001CF81C381C380E3807F800000000000085
:102A500000001C701C701C701C701C701FF01FF09C
:102A60001C701C701C701C701C70000000000000AA
:102A700000000FE003800380038003800380038055
:102A800003800380038003800FE00000000000004B
:102A9000000001FC00700070007000700070007099
:102AA00038703870387038700FE000000000000097
:102AB00000001E380E380E700EE00FC00F800F8021
:102AC0000FC00EE00E700E381E380000000000002F
:102AD00000001F000E000E000E000E000E000E0083
:102AE0000E000E080E180E381FF80000000000003F
:102AF00000001C1C1E3C1F7C1FFC1FFC1DDC1C9CC2
:102B00001C1C1C1C1C1C1C1C1C1C000000000000AD
:102B100000001C1C1C1C1E1C1F1C1F9C1DDC1CFC04
:102B20001C7C1C3C1C1C1C1C1C1C0000000000000D
:102B3000000003E007F00E381C1C1C1C1C1C1C1C95
:102B40001C1C1C1C0E3807F003E0000000000000F5
:102B500000001FF00E380E380E380E380FF00FF050
:102B60000E000E000E000E001F000000000000000E
:102B7000000003E00F780E381C1C1C1C1C1C1C1CC5
:102B80001C7C1CFC0FF80FF8003800FC0000000053
:102B900000001FF00E380E380E380E380FF00FF010
:102BA0000E700E380E380E381E380000000000007F
:102BB00000000FF01C381C381C381C000FE007F018
:102BC00000381C381C381C380FF0000000000000D2
:102BD00000001FFC19CC11C401C001C001C001C01C
:102BE00001C001C001C001C007F0000000000000EA
:102BF00000001C701C701C701C701C701C701C7001
:102C00001C701C701C701C700FE0000000000000A5
:102C100000001C701C701C701C701C701C701C70E0
:102C20001C701C700EE007C0038000000000000054
:102C300000001C1C1C1C1C1C1C1C1C1C1C9C1C9C0C
:102C40001C9C0FF80FF807700770000000000000D0
:102C500000001C701C701C700EE007C00380038015
:102C600007C00EE01C701C701C700000000000000B
:102C700000001C701C701C701C701C700EE007C0E3
:102C800003800380038003800FE000000000000049
:102C900000001FF81C381838107000E001C00380D5
:102CA00007000E081C181C381FF800000000000068
:102CB000000007F0070007000700070007000700F3
:102CC000070007000700070007F0000000000000F1
:102CD0000000100018001C000E000700038001C057
:102CE00000E000700038001C000700000000000039
:102CF000000007F00070007000700070007000703D
:102D0000007000700070007007F00000000000000C
:102D1000018003C007E00E701C38000000000000B6
:102D200000000000000000000000000000000000A3
:102D30000000000000000000000000000000000093
:102D4000000000000000000000007FFF7FFF000087
:102D500000001C001C00070007000000000000002D
:102D60000000000000000000000000000000000063
:102D7000000000000000000000000FE00070007084
:102D80000FF01C701C701C700FD8000000000000B9
:102D900000001E000E000E000E000FF00E380E3860
:102DA0000E380E380E380E381BF000000000000000
:102DB000000000000000000000000FE01C701C700C
:102DC0001C001C001C701C700FE0000000000000C4
:102DD000000000F80070007000700FF01C701C7094
:102DE0001C701C701C701C700FD8000000000000CC
:102DF000000000000000000000000FE01C701C70CC
:102E00001FF01C001C701C700FE000000000000090
:102E1000000003E007700770070007001FE01FE0D5
:102E200007000700070007001FC0000000000000A7
:102E3000000000000000000000000FD81C701C7093
:102E40001C701C700FF007F000701C700FE0000089
:102E500000001E000E000E000E000EF00F380F389E
:102E60000E380E380E380E381E38000000000000F4
:102E7000000001C001C001C000000FC001C001C0BE
:102E800001C001C001C001C00FF800000000000037
:102E90000000007000700070000003F0007000700F
:102EA00000700070007000701C700CF007E00000F3
:102EB00000001E000E000E000E000E380E700EE018
:102EC0000FC00EE00E700E381E380000000000002B
:102ED00000000FC001C001C001C001C001C001C09D
:102EE00001C001C001C001C00FF8000000000000D7
:102EF000000000000000000000001FF81C9C1C9C4B
:102F00001C9C1C9C1C9C1C9C1C9C00000000000029
:102F1000000000000000000000001FE01C701C709A
:102F20001C701C701C701C701C70000000000000E5
:102F3000000000000000000000000FE01C701C708A
:102F40001C701C701C701C700FE000000000000062
:102F5000000000000000000000001BF00E380E38DA
:102F60000E380E380E380FF00E000E001F00000055
:102F7000000000000000000000001FB038E038E052
:102F800038E038E038E01FE000E000E001F0000049
:102F9000000000000000000000001EF00FF80F38D5
:102FA0000E000E000E000E001F00000000000000CA
:102FB000000000000000000000000FE01C301C308A
:102FC0000F8003E0187018700FE000000000000090
:102FD000000000000100030007001FF007000700C9
:102FE000070007000770077003E000000000000002
:102FF000000000000000000000001C701C701C702D
:103000001C701C701C701C700FD8000000000000A9
:10301000000000000000000000001C701C701C700C
:103020001C701C700EE007C0038000000000000050
:10303000000000000000000000001C1C1C1C1C1CE8
:103040001C9C1C9C0FF8077007700000000000001B
:10305000000000000000000000001CE01CE00FC0A9
:10306000078007800FC01CE01CE00000000000008B
:10307000000000000000000000000E380E380E387E
:103080000E380E3807F003E000E001C01F8000009A
:10309000000000000000000000001FE018E011C068
:1030A000038007000E201C601FE0000000000000ED
:1030B000000001F803800380038007001C001C004F
:1030C000070003800380038001F800000000000077
:1030D00001C001C001C001C001C001C001C001C0E8
:1030E00001C001C001C001C001C001C0000000005A
:1030F00000001F8001C001C001C000E0003800389E
:1031000000E001C001C001C01F80000000000000FD
:1031100000001F1C3B9C39DC38F800000000000058
:103120000000000000000000000000000000080C8B
:10313000205F000000000000000000000000000010
:1031400020202020202000200000002850500000D7
:1031500000000000000000002828FC2850FC50500F
:103160000000002078A8A0603028A8F0200000000F
:1031700048A8B0502834544800000000205050782F
:10318000A8A8906C000000404080000000000000F3
:103190000000000408101010101010080400004077
:1031A0002010101010101020400000000020A87007
:1031B00070A8200000000000202020F8202020001F
:1031C00000000000000000000000004040800000FF
:1031D000000000F8000000000000000000000000F7
:1031E0000000004000000008101010202040404067
:1031F000800000007088888888888870000000003F
:10320000206020202020207000000000708888109E
:10321000204080F80000000070880830080888709E
:10322000000000001030505090781018000000008E
:10323000F88080F00808887000000000709080F02E
:103240008888887000000000F8901020202020203E
:103250000000000070888870888888700000000076
:1032600070888888780848700000000000002000FE
:1032700000000020000000000000002000000020EE
:103280002000000408102040201008040000000066
:103290000000F80000F800000000004020100804C2
:1032A00008102040000000007088881020200020B6
:1032B00000000000708898A8A8B88078000000007E
:1032C00020203050507848CC00000000F048487072
:1032D000484848F00000000078888080808088702E
:1032E00000000000F0484848484848F0000000004E
:1032F000F8485070504048F800000000F8485070FE
:10330000504040E000000000384880809C884830F1
:1033100000000000CC484878484848CC0000000035
:10332000F8202020202020F8000000007C10101041
:1033300010101090E0000000EC485060505048EC35
:1033400000000000E0404040404044FC000000001D
:10335000D8D8D8D8A8A8A8A800000000DC48686879
:10336000585848E80000000070888888888888706D
:1033700000000000F0484870404040E000000000BD
:103380007088888888E8987018000000F0484870B5
:10339000504848EC0000000078888060100888F0F1
:1033A00000000000F8A8202020202070000000006D
:1033B000CC4848484848483000000000CC484850B5
:1033C0005030202000000000A8A8A8705050505095
:1033D00000000000D8505020205050D800000000BD
:1033E000D85050202020207000000000F8901020BD
:1033F000204048F8000000382020202020202020F5
:1034000038000040404020201010100800000070DC
:10341000101010101010101070000020500000004C
:10342000000000000000000000000000000000009C
:1034300000FC002000000000000000000000000070
:10344000000000304838483C00000000C040407098
:1034500048484870000000000000003848404038EC
:1034600000000000180808384848483C00000000E8
:103470000000003048784038000000001C20207810
:1034800020202078000000000000003C48304078F8
:1034900044380000C0404070484848EC000000003C
:1034A000200000602020207000000000100000308C
:1034B0001010101010E00000C040405C507048EC4C
:1034C00000000000E0202020202020F80000000064
:1034D000000000F0A8A8A8A800000000000000F06C
:1034E000484848EC000000000000003048484830E0
:1034F00000000000000000F04848487040E0000074
:103500000000003848484838081C0000000000D877
:10351000604040E000000000000000784030087883
:103520000000000000202070202020180000000073
:10353000000000D84848483C00000000000000ECB3
:103540004850302000000000000000A8A870505033
:1035500000000000000000D8502050D800000000FB
:10356000000000EC4850302020C00000000000782F
:1035700010202078000000181010102010101010DB
:103580001800101010101010101010101010006003
:103590002020201020202020600040A418000000DF
:1035A00000000000000000000A0B02090C0D0E08CC
:1035B00007030401000000000000000000000000FC
:1035C00000000000000000000000000000000000FB
:1035D00000001211100000000000000000000000B8
:1035E00000000000000000000000000001021020A8
:1035F0002008081020401020408002010201080429
:1036000002010102040810204080804020100804BC
:103610000201800402018040201008040201080415
:103620000201010204081020408001020408102059
:103630004080050505050705080808080202020282
:103640000A0A08080404040401010101010101013E
:103650000303030303030303040707070C0C0C0C09
:103660000C0C0C0C020202020606060606060606F2
:103670000B0B0B0B0B0B0B0B000020002300260089
:1036800029002C002F003200000100000301060178
:10369000090100002200250028002B002E00310027
:1036A000340002010000050108010B0100002100A7
:1036B000240027002A002D00300033000101000003
:1036C000040107010A011C33FB64453311241FBEAA
:1036D000CFEFD1E2DEBFCDBF00E00CBF14E0A0E031
:1036E000B2E0E4E3F8ED00E00BBF02C007900D92FA
:1036F000A436B107D9F725E0A4E6B4E001C01D92D5
:10370000AB3DB207E1F716E3CAECD6E300E006C032
:1037100022970109FE010BBF0E947C69C63CD107BC
:1037200080E00807A9F70E943F650C94096C0C948F
:1037300000000C94E36B0C94EB6B0F931F9380E0F1
:1037400095E00E94505620E040E060E080E095E087
:103750000E94F0562FEF4FEF6FEF80E095E00E9450
:1037600004572FEF4FEF6FEF80E095E00E94F05687
:1037700020E040E060E080E095E00E9404576AE4C9
:1037800075E280E095E00E94825F00E010E020E8B2
:1037900030E040E250E067EF72E080E095E00E94A8
:1037A0009A5D20EA30E040E250E06AE073E080E0B9
:1037B00095E00E949A5D20EC30E040E250E06DE13F
:1037C00073E080E095E00E949A5D20EE30E040E2F8
:1037D00050E060E373E080E095E00E949A5D20E0B5
:1037E00040E060E080E095E00E94F0562FEF4FEF60
:1037F0006FEF80E095E00E94045720E031E040E365
:1038000051E062E274E080E095E00E949A5D20E180
:1038100031E040E351E06CE473E080E095E00E9429
:103820009A5D20E231E040E351E062E274E080E042
:1038300095E00E949A5D20E031E040E951E062E2CB
:1038400074E080E095E00E949A5D20E131E040E97B
:1038500051E061E573E080E095E00E949A5D20E22E
:1038600031E040E951E062E274E080E095E00E94DE
:103870009A5D2FEF4FEF6FEF80E095E00E94F056DA
:1038800020E040E060E080E095E01F910F910C9413
:1038900004570F931F93182F2FEF4FEF6FEF80E018
:1038A00095E00E94F05620E040E060E080E095E086
:1038B0000E940457412F50E04D5F5F4F85E0440F59
:1038C000551F8A95E1F78A01005F1F4F4850510943
:1038D00028ED31E068E070E080E095E00E94E65776
:1038E0001F910F9108950F931F93182F20E040E030
:1038F00060E080E095E00E94F0562FEF4FEF6FEF11
:1039000080E095E00E940457412F50E04D5F5F4FEB
:1039100095E0440F551F9A95E1F78A01005F1F4F0C
:103920004850510928ED31E068E070E080E095E012
:103930000E94E6572FEF4FEF6FEF80E095E00E9477
:10394000F05620E040E060E080E095E01F910F91AC
:103950000C940457EF92FF920F931F93CF93DF9332
:10396000CDB7DEB762970FB6F894DEBF0FBECDBFFE
:103970007C0166E274E0CE010D960E941F6666E24D
:1039800074E0CE0107960E941F662FEF4FEF6FEF96
:1039900080E095E00E94F05620E040E060E080E0AA
:1039A00095E00E9404576EE271E380E095E00E948A
:1039B000825F4AE0B701CE0101960E946766BE01B0
:1039C0006F5F7F4FCE010D960E943466CE01019647
:1039D0000E94B86521E030E040E050E0BE01635F46
:1039E0007F4FCE0101960E94BA66BE016F5F7F4F86
:1039F000CE0107960E943466CE0101960E94B865FA
:103A00008EEBE81A85E1F80ABE01695F7F4FCE01AF
:103A100001960E94496600E010E02EE630E0A70122
:103A2000BE016F5F7F4F80E095E00E94435ECE0154
:103A300001960E94B86522E030E041E050E0BE010E
:103A4000635F7F4FCE0101960E94BA66BE016F5F31
:103A50007F4FCE0107960E943466CE0101960E94E8
:103A6000B865BE01695F7F4FCE0101960E9449662D
:103A70002AE730E0A701BE016F5F7F4F80E095E04D
:103A80000E94435ECE0101960E94B86523E030E0BB
:103A900042E050E0BE01635F7F4FCE0101960E947D
:103AA000BA66BE016F5F7F4FCE0107960E943466F3
:103AB000CE0101960E94B865BE01695F7F4FCE01BD
:103AC00001960E94496626E830E0A701BE016F5FBB
:103AD0007F4F80E095E00E94435ECE0101960E94F8
:103AE000B86524E030E043E050E0BE01635F7F4F03
:103AF000CE0101960E94BA66BE016F5F7F4FCE0174
:103B000007960E943466CE0101960E94B865BE01F8
:103B1000695F7F4FCE0101960E94496622E930E03D
:103B2000A701BE016F5F7F4F80E095E00E94435E7A
:103B3000CE0101960E94B8652FEF4FEF6FEF80E046
:103B400095E00E94F05620E040E060E080E095E0E3
:103B50000E9404576AE475E280E095E00E94825F6B
:103B6000CE0107960E94B865CE010D960E94B865F9
:103B700062960FB6F894DEBF0FBECDBFDF91CF9136
:103B80001F910F91FF90EF9008950F931F93CF9384
:103B9000DF9380E095E00E94505620E040E060E036
:103BA00080E095E00E94F0562FEF4FEF6FEF80E03E
:103BB00095E00E940457C0EED5E1CE01CBDE6496BD
:103BC000C43887E1D807C9F72FEF4FEF6FEF80E0D8
:103BD00095E00E94F05620E040E060E080E095E053
:103BE0000E9404576AE475E280E095E00E94825FDB
:103BF00000E010E028EA30E040E750E066E573E0DE
:103C000080E095E00E949A5D20E040E060E080E086
:103C100095E00E94F0562FEF4FEF6FEF80E095E0B8
:103C20000E94045720EC30E040E850E063E274E08A
:103C300080E095E00E949A5D20ED30E040E850E0A1
:103C40006DE673E080E095E00E949A5D20EE30E042
:103C500040E850E063E274E080E095E00E949A5D05
:103C600020E031E040E850E063E274E080E095E07D
:103C70000E949A5D20E131E040E850E061E773E0A6
:103C800080E095E00E949A5D20E231E040E850E05B
:103C900063E274E080E095E00E949A5D20EE30E0FF
:103CA00040E450E063E274E080E095E00E949A5DB9
:103CB00020EF30E040E450E065E773E080E095E01D
:103CC0000E949A5D20E031E040E450E063E274E05D
:103CD00080E095E00E949A5D20EE30E040EC50E0FC
:103CE00063E274E080E095E00E949A5D20EF30E0AE
:103CF00040EC50E069E773E080E095E00E949A5D57
:103D000020E031E040EC50E063E274E080E095E0D8
:103D10000E949A5D20EE30E040E351E062E274E000
:103D200080E095E00E949A5D20EF30E040E351E0B2
:103D30006DE773E080E095E00E949A5D20E031E05D
:103D400040E351E062E274E080E095E00E949A5D19
:103D500020EE30E040E951E062E274E080E095E07E
:103D60000E949A5D20EF30E040E951E062E873E0A4
:103D700080E095E00E949A5D20E031E040E951E06A
:103D800062E274E080E095E00E949A5D2FEF4FEFD1
:103D90006FEF80E095E00E94F05620E040E060E0A8
:103DA00080E095E0DF91CF911F910F910C94045723
:103DB000EF92FF920F931F93CF93DF93CDB7DEB7B0
:103DC00062970FB6F894DEBF0FBECDBFE82EF62E79
:103DD00066E274E0CE010D960E941F6666E274E012
:103DE000CE0107960E941F66F11003C02FEF4FEF20
:103DF00002C020E040E06FEF80E095E00E94F056C6
:103E000020E040E060E080E095E00E9404576EE230
:103E100071E380E095E00E94825FEE2DF0E0EE0F0E
:103E2000FF1FE958FB4F608171814AE0CE01019686
:103E30000E946766BE016F5F7F4FCE010D960E94A4
:103E40003466CE0101960E94B86521E030E040E082
:103E500050E0BE01635F7F4FCE0101960E94BA66BB
:103E6000BE016F5F7F4FCE0107960E943466CE0180
:103E700001960E94B8658FE0E89E7001112483E0EE
:103E8000E80EF11CBE01695F7F4FCE0101960E94D2
:103E9000496600E010E02CE630E0A701BE016F5F4C
:103EA0007F4F80E095E00E94435ECE0101960E9424
:103EB000B86522E030E041E050E0BE01635F7F4F33
:103EC000CE0101960E94BA66BE016F5F7F4FCE01A0
:103ED00007960E943466CE0101960E94B865BE0125
:103EE000695F7F4FCE0101960E9449662CE730E062
:103EF000A701BE016F5F7F4F80E095E00E94435EA7
:103F0000CE0101960E94B86523E030E042E050E027
:103F1000BE01635F7F4FCE0101960E94BA66BE016B
:103F20006F5F7F4FCE0107960E943466CE010196E7
:103F30000E94B865BE01695F7F4FCE0101960E9465
:103F400049662CE830E0A701BE016F5F7F4F80E03B
:103F500095E00E94435ECE0101960E94B86524E080
:103F600030E043E050E0BE01635F7F4FCE01019639
:103F70000E94BA66BE016F5F7F4FCE0107960E9416
:103F80003466CE0101960E94B865BE01695F7F4F1D
:103F9000CE0101960E9449662CE930E0A701BE01DE
:103FA0006F5F7F4F80E095E00E94435ECE010196F7
:103FB0000E94B8652FEF4FEF6FEF80E095E00E9411
:103FC000F05620E040E060E080E095E00E94045779
:103FD0006AE475E280E095E00E94825FCE01079678
:103FE0000E94B865CE010D960E94B86562960FB624
:103FF000F894DEBF0FBECDBFDF91CF911F910F911F
:10400000FF90EF9008950F931F93CF9380E095E07A
:104010000E94505620E040E060E080E095E00E9481
:10402000F0562FEF4FEF6FEF80E095E00E940457BE
:10403000C0E060E08C2FBCDECF5FC032D1F72FEF45
:104040004FEF6FEF80E095E00E94F05620E040E0F7
:1040500060E080E095E00E9404576AE475E280E049
:1040600095E00E94825F00E010E020EB30E040EC41
:1040700050E067E873E080E095E00E949A5D20E000
:1040800040E060E080E095E00E94F0562FEF4FEFB7
:104090006FEF80E095E00E94045720EC30E040E8AC
:1040A00050E063E274E080E095E00E949A5D20EDCC
:1040B00030E040E850E06DE673E080E095E00E947B
:1040C0009A5D20EE30E040E850E063E274E080E08A
:1040D00095E00E949A5D20E031E040E850E063E224
:1040E00074E080E095E00E949A5D20E131E040E8D4
:1040F00050E061E773E080E095E00E949A5D20E285
:1041000031E040E850E063E274E080E095E00E9436
:104110009A5D20EE30E040E450E063E274E080E03D
:1041200095E00E949A5D20EF30E040E450E065E7C2
:1041300073E080E095E00E949A5D20E031E040E489
:1041400050E063E274E080E095E00E949A5D20EE2A
:1041500030E040EC50E063E274E080E095E00E94E3
:104160009A5D20EF30E040EC50E069E773E080E0DA
:1041700095E00E949A5D20E031E040EC50E063E27F
:1041800074E080E095E00E949A5D20EE30E040E32C
:1041900051E062E274E080E095E00E949A5D20EFD9
:1041A00030E040E351E06DE773E080E095E00E948D
:1041B0009A5D20E031E040E351E062E274E080E0AB
:1041C00095E00E949A5D20EE30E040E951E062E225
:1041D00074E080E095E00E949A5D20EF30E040E9D5
:1041E00051E069E973E080E095E00E949A5D20E08B
:1041F00031E040E951E062E274E080E095E00E9445
:104200009A5D2FEF4FEF6FEF80E095E00E94F05640
:1042100020E040E060E080E095E0CF911F910F91B9
:104220000C9404570F931F93CF93DF9300D000D0CB
:10423000CDB7DEB766EA71E080E095E00E94825F6C
:1042400080E095E00E94505620E040E060E080E091
:1042500095E00E94F0562FEF4FEF6FEF80E095E072
:104260000E94045700E010E021E330E04EE057E206
:104270006EE973E080E095E00E949A5D21E730E00E
:104280004EE057E261EB73E080E095E00E949A5DBA
:1042900021EB30E04EE057E264EC73E080E095E023
:1042A0000E949A5D21EF30E04EE057E267ED73E047
:1042B00080E095E00E949A5D6EE271E380E095E017
:1042C0000E94825F2FEF4FEF6FEF80E095E00E943A
:1042D000F05620E040E060E080E095E00E94045766
:1042E0006AEF74E0CE0101960E94496624E331E052
:1042F00040E050E0BE016F5F7F4F80E095E00E949C
:10430000435ECE0101960E94B86526960FB6F894DA
:10431000DEBF0FBECDBFDF91CF911F910F910895EA
:104320008CE30E94FC62892B61F464E670E080E01B
:1043300090E00E9484618CE30E94FC6221E0892B62
:1043400009F020E0822F08958DE30E94FC62892B02
:1043500061F464E670E080E090E00E9484618DE3A7
:104360000E94FC6221E0892B09F020E0822F089551
:104370008BE30E94FC62892B61F464E670E080E0CC
:1043800090E00E9484618BE30E94FC6221E0892B13
:1043900009F020E0822F08958EE30E94FC62892BB1
:1043A00061F464E670E080E090E00E9484618EE356
:1043B0000E94FC6221E0892B09F020E0822F089501
:1043C0008FE30E94FC62892B61F464E670E080E078
:1043D00090E00E9484618FE30E94FC6221E0892BBF
:1043E00009F020E0822F089580E40E94FC62892B6E
:1043F00061F464E670E080E090E00E94846180E413
:104400000E94FC6221E0892B09F020E0822F0895B0
:104410000F931F93182F2FEF4FEF6FEF80E095E072
:104420000E94F05620E040E060E080E095E00E94CD
:104430000457412F50E04150510936E0440F551FB9
:104440003A95E1F78A01025A1F4F4D5D5F4F26ED05
:1044500031E068E070E080E095E00E94E6571F914F
:104460000F9108950F931F93182F20E040E060E014
:1044700080E095E00E94F0562FEF4FEF6FEF80E065
:1044800095E00E940457412F50E04150510966E0E9
:10449000440F551F6A95E1F78A01025A1F4F4D5D7F
:1044A0005F4F26ED31E068E070E080E095E00E942B
:1044B000E6572FEF4FEF6FEF80E095E00E94F05648
:1044C00020E040E060E080E095E01F910F910C94C7
:1044D0000457CF92DF92EF92FF920F931F93CF93E7
:1044E000DF93CDB7DEB769970FB6F894DEBF0FBE86
:1044F000CDBFE82EC62E66E274E0CE014396498F0A
:104500000E941F6665E274E0CE010D960E941F6650
:1045100065E274E0CE0107960E941F66FE2C88E0DB
:10452000C89EF00C1124498D20E0411108C060E0C4
:1045300080E095E00E94F0562FEF4FEF08C040E07A
:1045400060E080E095E00E94F05620E040E06FEFF0
:1045500080E095E00E9404576AE475E280E095E00F
:104560000E94825FEF2DF0E0EE0FFF1FEF5EFD4F28
:10457000608171814AE0CE0101960E946766BE01AA
:104580006F5F7F4FCE0143960E943466CE01019645
:104590000E94B86522E030E040E050E0BE016D5E70
:1045A0007F4FCE0101960E94BA66BE016F5F7F4FBA
:1045B000CE010D960E943466CE0101960E94B86528
:1045C00080E3C89E600111248CE3E89E70011124F1
:1045D00088E0E80EF11CBE01635F7F4FCE010196BB
:1045E0000E9449669601285F3F4F00E010E0A70156
:1045F000BE016F5F7F4F80E095E00E94435ECE0179
:1046000001960E94B86524E030E042E050E0BE012F
:104610006D5E7F4FCE0101960E94BA66BE016F5F4C
:104620007F4FCE010D960E943466CE0101960E9406
:10463000B865BE01635F7F4FCE0101960E94496657
:104640009601285E3F4FA701BE016F5F7F4F80E05C
:1046500095E00E94435ECE0101960E94B8652FEF5F
:104660004FEF6FEF80E095E00E94F05620E040E0D1
:1046700060E080E095E00E940457CE0107960E941A
:10468000B865CE010D960E94B865CE0143960E9492
:10469000B86569960FB6F894DEBF0FBECDBFDF9147
:1046A000CF911F910F91FF90EF90DF90CF900895E1
:1046B0000F931F93CF93DF9380E095E00E945056B5
:1046C000D0E0C0E040E06C2F8D2F03DFCF5FC4301F
:1046D000C9F7DF5FD830A9F720E040E060E080E074
:1046E00095E00E94F0562FEF4FEF6FEF80E095E0DE
:1046F0000E94045700E010E020EC30E040E850E079
:1047000063E274E080E095E00E949A5D20ED30E085
:1047100040E850E06DE673E080E095E00E949A5D2D
:1047200020EE30E040E850E063E274E080E095E0A5
:104730000E949A5D20E031E040E850E063E274E0DE
:1047400080E095E00E949A5D20E131E040E850E091
:1047500061E773E080E095E00E949A5D20E231E03D
:1047600040E850E063E274E080E095E00E949A5DEA
:1047700020EE30E040E450E063E274E080E095E059
:104780000E949A5D20EF30E040E450E065E773E07E
:1047900080E095E00E949A5D20E031E040E450E046
:1047A00063E274E080E095E00E949A5D20EE30E0E4
:1047B00040EC50E063E274E080E095E00E949A5D96
:1047C00020EF30E040EC50E069E773E080E095E0F6
:1047D0000E949A5D20E031E040EC50E063E274E03A
:1047E00080E095E00E949A5D20EE30E040E351E0E9
:1047F00062E274E080E095E00E949A5D20EF30E094
:1048000040E351E06CE473E080E095E00E949A5D43
:1048100020E031E040E351E062E274E080E095E0C6
:104820000E949A5D20EE30E040E951E062E274E0DF
:1048300080E095E00E949A5D20EF30E040E951E091
:104840006AEE73E080E095E00E949A5D20E031E03E
:1048500040E951E062E274E080E095E00E949A5DF8
:104860002FEF4FEF6FEF80E095E00E94F05620E0D1
:1048700040E060E080E095E0DF91CF911F910F91E3
:104880000C940457EAEBF4E090E080E060E02191C2
:104890003191462F50E04217530710F4622F892FB1
:1048A0009F5F9032A1F70895CF92DF92EF92FF922F
:1048B0000F931F93CF93DF93C82F6B0120E040E04D
:1048C00060E080E095E00E94F0568FE0C89FE00134
:1048D00011247E0187E0E80EF11C239604E610E027
:1048E000970140E050E0BE0180E095E00E942A5828
:1048F0002FEF4FEF6FEF80E095E00E94F05644E617
:1049000050E04C195D099701BE0180E095E00E94DE
:104910002A582FEF4FEF6FEF80E095E00E94F0569E
:1049200020E040E060E080E095E0DF91CF911F91D2
:104930000F91FF90EF90DF90CF900C940457EAEB2B
:10494000F4E01192119284E0EA3FF807D1F708955C
:10495000E1E1F2E0A7E7B4E0819191918D939D931D
:1049600082E0E135F807C1F78FE190E060E0A62F23
:10497000B0E0A817B907BCF4FD01EE0FFF1FE9581E
:10498000FB4F40815181AA0FBB1FA758BB4F2D91F0
:104990003C9111972417350720F44D935C93318394
:1049A00020836F5FE4CF019709F70895E7E7F4E00C
:1049B00040E0219131912817390711F4842F08958F
:1049C0004F5F4032B1F70895E1E1F2E040E021911C
:1049D00031912817390711F4842F08954F5F403221
:1049E000B1F708951F93CF93DF9362DE80910B029E
:1049F00090910C02E9DFC82F182F16951695169581
:104A0000D82FD77041E0612F8D2F63DD89DC88239B
:104A100099F040E0612F8D2F5CDDC83010F4C85E46
:104A200001C0C8501C2F169516951695DC2FD7700F
:104A300041E0612F8D2F4DDD87DC882399F040E028
:104A4000612F8D2F46DDC83110F0C85101C0C85FFD
:104A50001C2F169516951695DC2FD77041E0612F07
:104A60008D2F37DD85DC8823A1F040E0612F8D2F6D
:104A700030DD8C2F877011F4C95F01C0C1501C2F2D
:104A8000169516951695DC2FD77041E0612F8D2F66
:104A900020DD82DC8823A9F040E0612F8D2F19DD15
:104AA0008C2F8770873011F4C75001C0CF5F1C2F47
:104AB000169516951695DC2FD77041E0612F8D2F36
:104AC00008DD7EDC811110C08FDC882309F49ECFC5
:104AD000EC2FF0E0EE0FFF1FEF5EFD4F8081918124
:104AE00090930C0280930B0281E08093B904DF91D4
:104AF000CF911F9108950F931F93CF93DF9300D011
:104B00001F92CDB7DEB7082F162F692F80E090E0F7
:104B10002C834B835A8379830E949B1B602F81E0F7
:104B200090E00E949B1B7981672F82E090E00E94B9
:104B30009B1B612F83E090E00E949B1B5A81652F95
:104B400084E090E00E949B1B4B81642F85E090E005
:104B50000E949B1B2C81622F86E090E00E949B1B91
:104B600000E010E060E0C80169830E94991B698140
:104B7000680F0F5F1F4F07301105A9F787E090E01E
:104B80000F900F900F900F90DF91CF911F910F9189
:104B90000C949B1B2AE049E456E16EE670E085E048
:104BA00091E0A9CFDF92EF92FF920F931F93CF93E3
:104BB000DF93CDB7DEB727970FB6F894DEBF0FBEF1
:104BC000CDBFCE0101967C0100E010E0D12CC801E0
:104BD0000E94991BF70181937F01C8010E94991BD4
:104BE000D80E0F5F1F4F0730110589F787E090E05F
:104BF0000E94991BD81225C0898190E0982F8827A0
:104C00002A81820F911D9093100280930F028B8155
:104C100090E0982F88272C81820F911D90930E028F
:104C200080930D028D8190E0982F88272E81820F2E
:104C3000911D90930C0280930B028F8180930A0246
:104C400001C080E027960FB6F894DEBF0FBECDBF3F
:104C5000DF91CF911F910F91FF90EF90DF9008951A
:104C60000F931F93683823E172078105910568F05F
:104C7000DC01CB01813727E19207A105B10548F09E
:104C800080E797E1A0E0B0E004C088E893E1A0E00D
:104C9000B0E08F5D9140A109B1098C019D01E6E072
:104CA0003695279517950795EA95D1F7BC01CD0163
:104CB0006F737727882799279695879577956795B6
:104CC000A7E0000F111F221F331FAA95D1F7600F15
:104CD000711F821F931F1F910F910895FF920F93D1
:104CE0001F93CF93DF93BAE0FB2EC0E0D0E0082FF4
:104CF00010E0005B1D4FF80180810E941662C80F12
:104D0000D91FFA94C1F7CE016AE070E00E941A69D7
:104D1000CB01DF91CF911F910F91FF900895CF9319
:104D2000C82F60E084E40E94C76281E090E00E94A6
:104D3000A961C11102C060E001C061E082E40E948B
:104D4000C76281E090E00E94A96161E084E40E9472
:104D5000C76281E090E00E94A96160E084E40E9463
:104D6000C76281E090E0CF910C94A961CF93C82FE6
:104D700081E090E00E94A961EC2FF0E0EE5AFD4F37
:104D800060E080810E94C76281E090E0CF910C9446
:104D9000A961CF93C82F81E090E00E94A961EC2F18
:104DA000F0E0EE5AFD4F61E080810E94C76281E031
:104DB00090E0CF910C94A961EF92FF920F931F9313
:104DC000CF93DF9300D01F92CDB7DEB7082F162FF9
:104DD00029833A834B835C83C9DF94E0E92EF12C6D
:104DE0005C814B813A812981812F817029833A83AB
:104DF0004B835C8394DF169581E0E81AF1082981E2
:104E00003A814B815C81E114F10471F781E087DF25
:104E100084E1E82EF12C5C814B813A812981822F3B
:104E2000817029833A834B835C8379DF29813A81BE
:104E30004B815C815695479537952795E1E0EE1AB1
:104E4000F10869F7802FA5DF81E090E00E94A96159
:104E500060E082E40F900F900F900F90DF91CF9160
:104E60001F910F91FF90EF900C94C762CF93C82FC2
:104E700080E090E0F5DE9B01AC0161E08C2FCF91EA
:104E80009BCFCF93DF9361E080E095E00E94E03B11
:104E900026E040E855E260E070E08AE395E00E9499
:104EA000336480DE811101C075DE62E08BE30E9415
:104EB0008E6262E08CE30E948E6262E08DE30E946B
:104EC0008E6262E08EE30E948E6262E08FE30E9457
:104ED0008E6262E080E40E948E6261E082E40E9461
:104EE0008E6261E084E40E948E62C0E0809155028F
:104EF000C81750F4EC2FF0E0ED5AFD4F61E08081CF
:104F00000E948E62CF5FF2CF23DD8CD9C1E0809109
:104F100055028C1740F060910B0270910C028C2F9F
:104F2000A5DFCF5FF4CF84E694E00E94FA5FC0E093
:104F3000D0E040E060E086E90E940E619B01AC0198
:104F4000BE0184E694E00E94C6602196C032D1057D
:104F500081F784E694E00E94056068EE73E080E0EB
:104F600090E00E948461C0E0D0E040E066E980E02B
:104F70000E940E619B01AC01BE0184E694E00E9498
:104F8000C6602196C032D10581F784E694E00E9484
:104F9000056068EE73E080E090E00E948461C0E00C
:104FA000D0E046E960E080E00E940E619B01AC0128
:104FB000BE0184E694E00E94C6602196C032D1050D
:104FC00081F784E694E00E94056068EE73E080E07B
:104FD00090E00E948461C0E0D0E040E060E080E0CA
:104FE0000E940E619B01AC01BE0184E694E00E9428
:104FF000C6602196C032D10581F784E694E00E9414
:10500000056068EE73E080E090E0DF91CF910C9452
:1050100084612F923F924F925F926F927F928F9214
:105020009F92AF92BF92CF92DF92EF92FF920F9337
:105030001F93CF93DF9300D000D0CDB7DEB780E0D1
:1050400090E00E94991B882E81E090E00E94991BBD
:10505000912C982C8824880E911C82E090E00E946C
:10506000991B182F83E090E00E94991B212F30E0BC
:10507000522F4427480F511D5E834D8384E090E0FA
:105080000E94991B282E85E090E00E94991B312CEC
:10509000322C2224280E311C86E090E00E94991BBD
:1050A000782E4DDC1092B9040E949D1B2FEF4FEF1C
:1050B0006FEF80E095E00E94F05620E040E060E075
:1050C00080E095E00E9404576AE475E280E095E094
:1050D0000E94825FA40160E070E020E2C22EE12C19
:1050E000F12C00E810E020E631E080E095E00E943D
:1050F000895EAD81BE81CD01A0E0B0E089839A8355
:10510000AB83BC83ED81FE81E436F10538F000EA23
:1051100010E020E631E0AC01BD0118C000E010E075
:1051200020EA30E040E651E065E274E080E095E09E
:105130000E949A5DB0E2CB2EE12CF12C00EA10E047
:1051400020E731E049815A816B817C8180E095E0E4
:105150000E94895E472D50E060E070E0E0E2CE2ED4
:10516000E12CF12C00EC10E020E731E080E095E04C
:105170000E94895EA10160E070E000EE10E020E591
:1051800031E080E095E00E94895E81E00E94491C48
:1051900020E040E06FEF80E095E00E94F05644E6AA
:1051A00050E0471951098A012FED31E060E070E0CD
:1051B00080E095E00E941C592FEF4FEF6FEF80E0E9
:1051C00095E00E94F05600910B0210910C02309273
:1051D0000C0220920B02C101E9DB582E10930C0245
:1051E00000930B02E82FF0E0EE0FFF1FE958FB4F92
:1051F0006081718181E03ADE66246394412CF4D8A9
:10520000882309F4A5C080E090E00E94991B182F24
:1052100081E090E00E94991B212F30E0322F22275D
:10522000280F311D8216930669F582E090E00E94F6
:10523000991B182F83E090E00E94991B212F30E0EA
:10524000322F2227280F311D4D815E8142175307CF
:10525000C9F484E090E00E94991B182F85E090E04B
:105260000E94991B212F30E0322F2227280F311D59
:105270002216330639F486E090E00E94991B7816D6
:1052800009F4B8C2272DA1016D817E81C40133DCF0
:1052900020E040E060E080E095E00E94F0562FEFD3
:1052A0004FEF6FEF80E095E00E94045700E010E0C0
:1052B00020E031E040E150E066E174E080E095E01C
:1052C0000E949A5D20E131E040E150E067E274E045
:1052D00080E095E00E949A5D20E231E040E150E0FC
:1052E00066E174E080E095E00E949A5D68EE73E00C
:1052F00080E090E00E9484612FEF4FEF6FEF80E03D
:1053000095E00E94F05620E040E060E080E095E00B
:105310000E94045720E031E040E150E066E174E093
:1053200080E095E00E949A5D20E131E040E150E0AC
:1053300066E174E080E095E00E949A5D20E231E051
:1053400040E150E066E174E080E095E00E949A5D03
:1053500037D88823F1F081E08093B9041092B80423
:1053600026960FB6F894DEBF0FBECDBFDF91CF916A
:105370001F910F91FF90EF90DF90CF90BF90AF9073
:105380009F908F907F906F905F904F903F902F9065
:1053900008950E949021882351F0862D0E94731C4D
:1053A0006A9411F414E0612E862D0E94491C0E941B
:1053B000A421882361F0862D0E94731C639455E01C
:1053C000651202C066246394862D0E94491C0E94C7
:1053D000B821882309F4E0C083E0681609F456C0B8
:1053E00094E0691609F4B5C0A2E06A16B1F0B8EC11
:1053F0008B16910421F0E1E08E1A910804C0B0E907
:105400008B2E99249394A40160E070E0A0E2CA2E50
:10541000E12CF12C00E810E01CC02D813E812233EC
:10542000310541F0215031093E832D832436310569
:1054300098F004C04FEA50E05E834D838D819E81D9
:10544000AC0160E070E0F0E2CF2EE12CF12C00EA3C
:1054500010E020E631E096C000E010E020EA30E005
:1054600040E651E065E274E080E095E00E949A5DDC
:10547000AD81BE81AD0160E070E0E0E2CE2EE12CB6
:10548000F12C00EA10E020E731E07CC020E040E0B1
:1054900060E080E095E00E94F05644E650E0471955
:1054A00051098A012FED31E060E070E080E095E085
:1054B0000E941C59B1E07B1611F07A9402C063E699
:1054C000762E20E040E06FEF80E095E00E94F056FD
:1054D00044E650E0471951098A012FED31E060E0C0
:1054E00070E080E095E00E941C592FEF4FEF6FEFC6
:1054F00080E095E00E94F056272D30E040E050E03B
:1055000029833A834B835C8339E0371548F450E2B2
:10551000C52EE12CF12C00EC10E020E731E014C0A6
:1055200000E010E020EC30E040E751E065E274E09C
:1055300080E095E00E949A5D40E2C42EE12CF12CBF
:1055400000EC10E020E831E049815A816B817C81D8
:1055500019C0552011F05A9402C03FE1532EE52D99
:10556000F0E0EE0FFF1FE958FB4F20803180A101D2
:1055700060E070E020E2C22EE12CF12C00EE10E0A1
:1055800020E531E080E095E00E94895E62E370E012
:1055900080E090E00E9484610E94CC21882309F47D
:1055A000DCC043E0641609F452C054E0651609F407
:1055B000B1C082E06816B1F090E9891691E09906D1
:1055C00021F0AFEF8A1A9A0A03C088EC882E912C3A
:1055D000A40160E070E000E2C02EE12CF12C00E8B4
:1055E00010E014C0ED81FE81EF3AF10591F03196A3
:1055F000FE83ED83E436F10580F0AF0160E070E0FA
:1056000010E2C12EE12CF12C00EA10E020E631E09E
:105610009AC022E330E03E832D8300E010E020EAD0
:1056200030E040E651E065E274E080E095E00E9401
:105630009A5D8D819E81AC0160E070E0B0E2CB2E7E
:10564000E12CF12C00EA10E020E731E07CC020E002
:1056500040E060E080E095E00E94F05644E650E0D3
:10566000471951098A012FED31E060E070E080E0D8
:1056700095E00E941C5993E6791611F0739402C0CC
:105680007724739420E040E06FEF80E095E00E9483
:10569000F05644E650E0471951098A012FED31E0F8
:1056A00060E070E080E095E00E941C592FEF4FEF22
:1056B0006FEF80E095E00E94F056272D30E040E04B
:1056C00050E029833A834B835C8339E0371548F4F3
:1056D000A0E2CA2EE12CF12C00EC10E020E731E032
:1056E00014C000E010E020EC30E040E751E065E25B
:1056F00074E080E095E00E949A5DF0E2CF2EE12C0C
:10570000F12C00EC10E020E831E049815A816B81F6
:105710007C8119C04FE1541611F0539401C0512CF3
:10572000E52DF0E0EE0FFF1FE958FB4F20803180A0
:10573000A10160E070E0E0E2CE2EE12CF12C00EE61
:1057400010E020E531E080E095E00E94895E62E3B0
:1057500070E080E090E00E948461042D10E0000F72
:10576000111FF801E958FB4F6081718182E07EDBF7
:105770006EE170E080E090E00E94846182E0AEDA49
:10578000AD81BE818A179B0730F0BC01881699064F
:1057900020F4B40102C06D817E81F801E654FB4F14
:1057A000FA83E98371836083840120E030E080E044
:1057B00090E01F921F921F92F4E6FF93A12CB12C50
:1057C000650178018901AD81BE819D0140E050E015
:1057D0000E947365E981FA8171836083842D64D8A6
:1057E0000F900F900F900F90FFE14F1609F406CD28
:1057F000439405CD20E040E060E080E095E00E9429
:10580000F0562FEF4FEF6FEF80E095E00E940457C6
:1058100000E010E020E031E040E150E066E174E0BB
:1058200080E095E00E949A5D20E131E040E150E0A7
:1058300068E374E04DCD2F923F924F925F926F924A
:105840007F928F929F92AF92BF92CF92DF92EF9210
:10585000FF920F931F93CF93DF93CDB7DEB7C25262
:10586000D3400FB6F894DEBF0FBECDBF80900B02C1
:1058700090900C020E94C51DD12C24E6622E712C42
:105880000E94F421882309F45AC0CE0101961C011C
:1058900090EE492E95E1592E0E94E021811153C0CE
:1058A000B20182E0E3DA6EE170E080E090E00E9415
:1058B000846182E013DA20910D0230910E02E090B3
:1058C0000F02F09010028217930730F0BC01E81627
:1058D000F90618F4B70101C0B90100E010E040E09A
:1058E00050E080E090E01F921F921F92E4E6EF9359
:1058F000A12CB12C65010E9473656B017C01B20182
:10590000685B754183010C191D099B0144E650E059
:1059100080E095E00E941C59F101C192D1921F01D3
:10592000FFEF4F1A5F0A0F900F900F900F9081E7D3
:10593000481687E1580609F0AFCFDD24D3940E94C2
:10594000E0218823F9F081E08093B9041092B80433
:10595000CE5DDC4F0FB6F894DEBF0FBECDBFDF913A
:10596000CF911F910F91FF90EF90DF90CF90BF905C
:10597000AF909F908F907F906F905F904F903F90EF
:105980002F9008950E949021882319F091E0D91654
:1059900011F0F12C25C0F401E05EF541EE0FFF1F80
:1059A00081E090E08C0F9D1FE80FF91F80819181AD
:1059B0008301081B190BB401685B75419B0144E628
:1059C00050E080E095E00E941C5997E6891697E127
:1059D000990608F0F3C0EAE08E0E911CFF24F394C0
:1059E0000E94A421882341F1F1E0DF1225C0F401D7
:1059F000E05EF541EE0FFF1F81E090E08C0F9D1FF0
:105A0000E80FF91F808191818301081B190BB401F4
:105A1000685B75419B0144E650E080E095E00E94A0
:105A20001C599AEE891695E1990608F4CEC08AE0D1
:105A3000881A9108FF24F3940E94B821882341F129
:105A400091E0D91225C0F401E05EF541EE0FFF1F91
:105A500081E090E08C0F9D1FE80FF91F80819181FC
:105A60008301081B190BB401685B75419B0144E677
:105A700050E080E095E00E941C5990EE891695E177
:105A8000990609F4A9C0E1E08E1A9108FF24F39465
:105A90000E94CC21882341F1F1E0DF1225C0F401FE
:105AA000E05EF541EE0FFF1F81E090E08C0F9D1F3F
:105AB000E80FF91F808191818301081B190BB40144
:105AC000685B75419B0144E650E080E095E00E94F0
:105AD0001C5990E7891697E1990609F484C08FEF65
